{
  "_format": "hh-sol-artifact-1",
  "contractName": "Record",
  "sourceName": "contracts/Record.sol",
  "abi": [
    {
      "inputs": [
        {
          "internalType": "string",
          "name": "_pid",
          "type": "string"
        },
        {
          "internalType": "string",
          "name": "hash",
          "type": "string"
        }
      ],
      "name": "add",
      "outputs": [],
      "stateMutability": "nonpayable",
      "type": "function"
    },
    {
      "inputs": [
        {
          "internalType": "string",
          "name": "_pid",
          "type": "string"
        },
        {
          "internalType": "string",
          "name": "hash",
          "type": "string"
        }
      ],
      "name": "verify",
      "outputs": [
        {
          "internalType": "bool",
          "name": "",
          "type": "bool"
        }
      ],
      "stateMutability": "view",
      "type": "function"
    }
  ],
  "bytecode": "0x608060405234801561001057600080fd5b506106ff806100206000396000f3fe608060405234801561001057600080fd5b50600436106100365760003560e01c80639deb17f51461003b578063ebdf86ca1461006b575b600080fd5b61005560048036038101906100509190610478565b610087565b604051610062919061050b565b60405180910390f35b61008560048036038101906100809190610478565b61021f565b005b60008060008460405161009a91906105a0565b9081526020016040518091039020805480602002602001604051908101604052809291908181526020016000905b828210156101745783829060005260206000200180546100e7906105e6565b80601f0160208091040260200160405190810160405280929190818152602001828054610113906105e6565b80156101605780601f1061013557610100808354040283529160200191610160565b820191906000526020600020905b81548152906001019060200180831161014357829003601f168201915b5050505050815260200190600101906100c8565b50505050905060005b8151811015610212578360405160200161019791906105a0565b604051602081830303815290604052805190602001208282815181106101c0576101bf610618565b5b60200260200101516040516020016101d891906105a0565b6040516020818303038152906040528051906020012014156101ff57600192505050610219565b808061020a90610680565b91505061017d565b5060009150505b92915050565b60008260405161022f91906105a0565b90815260200160405180910390208190806001815401808255809150506001900390600052602060002001600090919091909150908051906020019061027692919061027b565b505050565b828054610287906105e6565b90600052602060002090601f0160209004810192826102a957600085556102f0565b82601f106102c257805160ff19168380011785556102f0565b828001600101855582156102f0579182015b828111156102ef5782518255916020019190600101906102d4565b5b5090506102fd9190610301565b5090565b5b8082111561031a576000816000905550600101610302565b5090565b6000604051905090565b600080fd5b600080fd5b600080fd5b600080fd5b6000601f19601f8301169050919050565b7f4e487b7100000000000000000000000000000000000000000000000000000000600052604160045260246000fd5b6103858261033c565b810181811067ffffffffffffffff821117156103a4576103a361034d565b5b80604052505050565b60006103b761031e565b90506103c3828261037c565b919050565b600067ffffffffffffffff8211156103e3576103e261034d565b5b6103ec8261033c565b9050602081019050919050565b82818337600083830152505050565b600061041b610416846103c8565b6103ad565b90508281526020810184848401111561043757610436610337565b5b6104428482856103f9565b509392505050565b600082601f83011261045f5761045e610332565b5b813561046f848260208601610408565b91505092915050565b6000806040838503121561048f5761048e610328565b5b600083013567ffffffffffffffff8111156104ad576104ac61032d565b5b6104b98582860161044a565b925050602083013567ffffffffffffffff8111156104da576104d961032d565b5b6104e68582860161044a565b9150509250929050565b60008115159050919050565b610505816104f0565b82525050565b600060208201905061052060008301846104fc565b92915050565b600081519050919050565b600081905092915050565b60005b8381101561055a57808201518184015260208101905061053f565b83811115610569576000848401525b50505050565b600061057a82610526565b6105848185610531565b935061059481856020860161053c565b80840191505092915050565b60006105ac828461056f565b915081905092915050565b7f4e487b7100000000000000000000000000000000000000000000000000000000600052602260045260246000fd5b600060028204905060018216806105fe57607f821691505b60208210811415610612576106116105b7565b5b50919050565b7f4e487b7100000000000000000000000000000000000000000000000000000000600052603260045260246000fd5b7f4e487b7100000000000000000000000000000000000000000000000000000000600052601160045260246000fd5b6000819050919050565b600061068b82610676565b91507fffffffffffffffffffffffffffffffffffffffffffffffffffffffffffffffff8214156106be576106bd610647565b5b60018201905091905056fea2646970667358221220646188d42314cd9f1a422bb33cdbd5301db8429d62955e7e3e04227919663f6964736f6c63430008090033",
  "linkReferences": {},
  "deployedLinkReferences": {}
}